:020000040800F2
:1000000000400020C12A0008052A0008072A00082D
:10001000092A00080B2A00080D2A00080000000029
:100020000000000000000000000000000F2A00088F
:10003000112A000800000000132A0008152A0008F1
:10004000092B0008092B0008092B0008092B0008C0
:10005000092B0008092B0008092B0008092B0008B0
:10006000092B0008092B0008092B0008092B0008A0
:10007000092B0008092B00081D2A0008092B00087D
:10008000092B0008092B0008092B0008092B000880
:10009000092B0008092B0008092B0008092B000870
:1000A000092B0008092B0008092B0008092B000860
:1000B0002D2A0008092B0008092B0008092B00082D
:1000C000092B0008092B0008092B0008092B000840
:1000D000092B00083D2A0008092B0008092B0008FD
:1000E000092B0008092B0008092B0008092B000820
:1000F000092B00080000000000000000092B000888
:100100000000000000000000092B0008092B000877
:10011000092B0008092B0008092B0008000000002B
:10012000092B000800000000000000000000000093
:0C01300000000000000000005FF808F173
:10013C0010B5054C237833B9044B13B10448AFF315
:10014C0000800123237010BD8000002000000000FF
:10015C00A033000808B5034B1BB103490348AFF3A8
:10016C00008008BD0000000084000020A0330008BF
:10017C00034613F8012B002AFBD1181A01387047DB
:10018C0010B50446074B1868074BA3FB00308009D9
:10019C0000F086F8002221464FF0FF3000F040F8C6
:1001AC00002010BD00000020D34D621008B50320C4
:1001BC0000F024F80020FFF7E3FF02F001FB002021
:1001CC0008BD0000024A136801331360704700BF7A
:1001DC00F4000020014B1868704700BFF4000020A9
:1001EC0010B582B00190FFF7F5FF0446FFF7F2FF60
:1001FC00001B019B9842F9D302B010BD074AD3688B
:10020C0023F4E0631B041B0C000200F4E0601843B1
:10021C0040F0BF6040F40030D060704700ED00E06B
:10022C0030B4174BDB68C3F30223C3F10704042C6F
:10023C0028BF04241D1D062D18D9033B4FF0FF3594
:10024C0005FA04F421EA0401994005FA03F322EAC1
:10025C000303194300280BDB0901C9B200F160400C
:10026C0000F5614080F8001330BC70470023E5E7CF
:10027C0000F00F000901C9B2024B1954F4E700BF9A
:10028C0000ED00E014ED00E000F01F024009012336
:10029C009340024A42F82030704700BF00E100E072
:1002AC000138B0F1807F0AD2064B5860064AF02123
:1002BC0082F823100020986007221A6070470120F2
:1002CC00704700BF10E000E000ED00E000283FD0D8
:1002DC0010B4034601681F4A91422ED81E4A0A44A4
:1002EC001E49A1FB02121209920002641C4AC2634D
:1002FC00022283F821201868016821F47F5121F033
:10030C0030015A689C682243DC6822431C692243F2
:10031C005C6922439C692243DC6922430A430260E4
:10032C0000209862D862186358639863012283F89E
:10033C00212083F8200010BC70470A4A0A44074960
:10034C00A1FB0212120992000264074AC263CFE7B2
:10035C000120704707640240F89FFDBFCDCCCCCC88
:10036C0000600240F89BFDBF0064024038B5C36BCF
:10037C001A6804682568016C04238B40134213D05F
:10038C0015F0040F10D0236813F0200F03D123684D
:10039C0023F004032360016CC26B04238B40536075
:1003AC00C36A03B1984738BD02238B4013421AD05D
:1003BC0015F0020F17D0236813F0200F06D1236815
:1003CC0023F00A032360012380F82130016CC26BF7
:1003DC0002238B405360002380F82030836A002B6B
:1003EC00E1D09847DFE7082303FA01F11142DAD094
:1003FC0015F0080FD7D0236823F00E032360026C8E
:10040C00C16B012303FA02F24A60836380F8213046
:10041C00002380F82030036B002BC4D09847C2E730
:10042C00F0B482B0002336E0032400E00024B44092
:10043C003C430235584E46F82540584C2568D44369
:10044C0004EA05064F6817F4803F01D042EA05061E
:10045C00524D2E606D6804EA05064F6817F4003F94
:10046C0001D042EA05064D4D6E60AD6804EA050602
:10047C004F6817F4801F01D042EA0506474DAE6065
:10048C00ED682C404E6816F4001F01D042EA0504BA
:10049C00424AD46001330A6832FA03F479D0012459
:1004AC009C402240F6D04D68022D01D0122D10D167
:1004BC00DE08083650F826C003F00705AF000F25FC
:1004CC00BD402CEA050C0D69BD4045EA0C0540F811
:1004DC00265006685F000325BD40ED4305EA060C77
:1004EC004E6806F00306BE4046EA0C0606604E68EF
:1004FC0006F1FF3CBCF1010F03D9112E01D0122ED5
:10050C0010D1866805EA060CCE68BE4046EA0C0699
:10051C008660466826EA04044E68C6F300169E40C0
:10052C0026434660C46825408C68BC402C43C4609C
:10053C004C6814F0805FADD0194C256A45F001056C
:10054C002562246A04F001040194019C9D08AE1CF0
:10055C00114C54F8267003F00304A6000F24B44089
:10056C0027EA04070F4CA0423FF460AF04F5806407
:10057C00A0420AD004F58064A04208D004F580643F
:10058C00A0423FF451AF052451E701244FE7022468
:10059C004DE702B0F0BC7047000001400004014080
:1005AC00003802400000024012B909048161704712
:1005BC008161704700285CD070B5044690F83530E6
:1005CC00002B43D0022384F835306369022B4DD0C5
:1005DC00E368002B3FD1012500F060FC2369B3F5E3
:1005EC00007F3AD06D01B0FBF5F000EB80004300CA
:1005FC006269B3FBF2F305331F4AA2FB0323DB084A
:10060C0003F001029B1A5B0810029A1EFD2A01D905
:10061C00002002232568EA6922F47B6222F00F0293
:10062C006168A6683143E6683143A66931430A43E1
:10063C0042F40062EA6122690243216813430B62AF
:10064C000020A063012384F8353070BD80F834306D
:10065C0002F0DCF8B6E70225BEE7000A00EB8000EA
:10066C0043006269B3FBF2F30533C5E700200223B4
:10067C00CBE70120704700BFCDCCCCCC82B0214B56
:10068C009B6813F0F00F2CD11E4B5B6A13F0805F4C
:10069C0008D01D4B1B6803F4C053B3F5C05F14D0D6
:1006AC0000211FE0174A536A43F080535362536A88
:1006BC0003F080530193019B134B1B6803F4C0534D
:1006CC00516A21F080515162E7E7B0F5404F01D0FB
:1006DC00002107E00D4A136843F004031360012165
:1006EC0000E00021094A136823F001030B43136057
:1006FC00136803F001038B4202D0012002B0704753
:10070C000020FBE70038024000700040003C024033
:10071C0070B582B00446036813F0010F37D0754BE7
:10072C009B6803F00C03082B1AD0724B9B6803F0E8
:10073C000C030C2B0FD06368012B66D0002B40F000
:10074C0088806C4B1A6822F480321A601A6822F482
:10075C0080221A605EE0674B9B6813F4803FEAD0FE
:10076C004FF4003393FAA3F3624B19684FF4003340
:10077C0093FAA3F3B3FA83F303F01F03012202FAF3
:10078C0003F30B4203D06368002B00F078832368DB
:10079C0013F0020F00F0BF80564B9B6803F00C0364
:1007AC00042B00F09080534B9B6803F00C030C2B34
:1007BC0000F08380E368002B00F04B81012292FA59
:1007CC00A2F3B3FA83F303F1845303F58E139B0066
:1007DC001A60FFF7FFFC0546022393FAA3F3454B7F
:1007EC001968022393FAA3F3B3FA83F303F01F03FC
:1007FC00012202FA03F30B4240F01B81FFF7EAFCE3
:10080C00401B0228E8D9032040E33A4A136843F41A
:10081C0080331360636893B3FFF7DCFC05464FF439
:10082C00003393FAA3F3334B19684FF4003393FA64
:10083C00A3F3B3FA83F303F01F03012202FA03F3C9
:10084C000B42A4D1FFF7C6FC401B6428E7D9032058
:10085C001CE3052B09D0274B1A6822F480321A604E
:10086C001A6822F480221A60D4E7224B1A6842F4E8
:10087C0080221A601A6842F480321A60CAE7FFF7C5
:10088C00A9FC05464FF4003393FAA3F3194B1968EE
:10089C004FF4003393FAA3F3B3FA83F303F01F037B
:1008AC00012202FA03F30B423FF471AFFFF792FC03
:1008BC00401B6428E6D90320E8E20E4B9B6813F436
:1008CC00803F7FF477AF022393FAA3F3094B1968A7
:1008DC00022393FAA3F3B3FA83F303F01F03012269
:1008EC0002FA03F30B4207D0E368934204D00120D1
:1008FC00CCE200BF00380240C148436823F4F853EF
:10090C0021694FF4F85292FAA2F2B2FA82F201FA89
:10091C0002F213434360236813F0100F5CD0B84B02
:10092C009B6813F00C0F40F0D8804FF4007393FACF
:10093C00A3F3B34B19684FF4007393FAA3F3B3FA10
:10094C0083F303F01F03012202FA03F30B4203D0DB
:10095C00A369002B00F09582206AA94B5B6803F415
:10096C006043984240F29D80FFF788FE002840F0DB
:10097C008A82A3494B6823F46043226A13434B6079
:10098C004B6823F07F43E0694FF07F4292FAA2F26A
:10099C00B2FA82F200FA02F213434B60236A4FF46C
:1009AC00604292FAA2F2B2FA82F2D3405A1C4FF48D
:1009BC0000439340924A926802F0F002F02191FABF
:1009CC00A1F1B1FA81F1CA408E498A5CD3408E4ABA
:1009DC0013600020FFF7D4FB236813F0080F00F01E
:1009EC0017816369002B00F0E680012191FAA1F2D6
:1009FC00B2FA82F2854B13449B001960FFF7EAFBB5
:100A0C000546022393FAA3F27D4A516B93FAA3F3A2
:100A1C00B3FA83F303F01F03012202FA03F30B4230
:100A2C0040F0F680FFF7D6FB401B0228E9D90320E3
:100A3C002CE27348436823F4F85321694FF4F852BD
:100A4C0092FAA2F2B2FA82F201FA02F21343436072
:100A5C0061E7012393FAA3F3B3FA83F303F184530D
:100A6C0003F58E139B0000221A60FFF7B3FB0546BB
:100A7C00022393FAA3F3624B1968022393FAA3F3AC
:100A8C00B3FA83F303F01F03012202FA03F30B42C0
:100A9C003FF441AFFFF79EFB401B0228E8D903202F
:100AAC00F4E157494B6823F46043184348604B68A2
:100ABC0023F07F43E0694FF07F4292FAA2F2B2FA40
:100ACC0082F200FA02F213434B60206AFFF7D6FD64
:100ADC0000283FF463AF0120D8E1A369002B3FD07D
:100AEC004FF4807393FAA3F3B3FA83F303F18453B3
:100AFC0003F58E139B0001221A60FFF76BFB054672
:100B0C004FF4007393FAA3F33D4B19684FF4007341
:100B1C0093FAA3F3B3FA83F303F01F03012202FA4F
:100B2C0003F30B4206D1FFF755FB401B0228E7D914
:100B3C000320ABE132494B6823F46043226A134330
:100B4C004B604B6823F07F43E0694FF07F4292FA91
:100B5C00A2F2B2FA82F200FA02F213434B603BE7C4
:100B6C004FF4807393FAA3F3B3FA83F303F1845332
:100B7C0003F58E139B0000221A60FFF72BFB054632
:100B8C004FF4007393FAA3F31D4B19684FF40073E1
:100B9C0093FAA3F3B3FA83F303F01F03012202FACF
:100BAC0003F30B423FF418AFFFF714FB401B022872
:100BBC00E6D903206AE1012292FAA2F2B2FA82F299
:100BCC00124B13449B0000221A60FFF703FB0546EF
:100BDC00022393FAA3F20A4A516B93FAA3F3B3FAE2
:100BEC0083F303F01F03012202FA03F30B420FD02D
:100BFC00FFF7F0FA401B0228EAD9032046E100BFB8
:100C0C0000380240C433000800000020A0C191103D
:100C1C00236813F0040F00F092809E4B5B6A13F074
:100C2C00805F1ED19B4B5A6A42F080525A625B6ABB
:100C3C0003F080530193019B0125974B1B6813F420
:100C4C00807F10D0A368012B21D0002B43D1914B76
:100C5C005A6B22F480725A635A6B22F480625A6384
:100C6C001AE00025E9E78C4A136843F4807313609B
:100C7C00FFF7B0FA0646884B1B6813F4807FE1D16E
:100C8C00FFF7A8FA801B6428F5D90320FEE0814AFF
:100C9C00536B43F480735363A36893B3FFF79AFACF
:100CAC0006464FF4007393FAA3F27A4A516B93FA07
:100CBC00A3F3B3FA83F303F01F03012202FA03F345
:100CCC000B423BD1FFF786FA801B41F288339842E6
:100CDC00E7D90320DAE0052B09D06E4B5A6B22F4CE
:100CEC0080725A635A6B22F480625A63D4E7694B60
:100CFC005A6B42F480625A635A6B42F480725A63A4
:100D0C00CAE7FFF767FA06464FF4007393FAA3F2AB
:100D1C00604A516B93FAA3F3B3FA83F303F01F0306
:100D2C00012202FA03F30B4208D0FFF753FA801B9F
:100D3C0041F288339842E7D90320A7E0B5BB636A38
:100D4C00002B00F0A280534A926802F00C020C2A8D
:100D5C0000F09E80022B2FD04FF0807393FAA3F3F8
:100D6C00B3FA83F303F1845303F58E139B00002233
:100D7C001A60FFF72FFA04464FF0007393FAA3F3AF
:100D8C00444B19684FF0007393FAA3F3B3FA83F34F
:100D9C0003F01F03012202FA03F30B426DD0FFF79D
:100DAC0019FA001B0228E7D903206FE0394A536A6D
:100DBC0023F080535362C2E74FF0807393FAA3F38E
:100DCC00B3FA83F303F1845303F58E139B000022D3
:100DDC001A60FFF7FFF905464FF0007393FAA3F37F
:100DEC002C4B19684FF0007393FAA3F3B3FA83F307
:100DFC0003F01F03012202FA03F30B4206D0FFF7A4
:100E0C00E9F9401B0228E7D903203FE021498B6810
:100E1C0023F47D03A26AE06A0243206B024313436E
:100E2C008B604FF0807393FAA3F3B3FA83F303F15F
:100E3C00845303F58E139B0001221A60FFF7CAF945
:100E4C0004464FF0007393FAA3F3124B19684FF05A
:100E5C00007393FAA3F3B3FA83F303F01F03012295
:100E6C0002FA03F30B4206D1FFF7B4F9001B022878
:100E7C00E7D903200AE0002008E0002006E001206A
:100E8C0004E0012002E0012000E0002002B070BD6F
:100E9C000120FBE70038024000700040224B9868AC
:100EAC0000F00C02082A3CD00C2A13D0042A0FD0D4
:100EBC001D4B586800F460404FF4604393FAA3F361
:100ECC00B3FA83F3D840431C4FF40040984070476A
:100EDC001648704700F470114FF4701292FAA2F297
:100EEC00B2FA82F221FA02F211498A5C00F4400053
:100EFC004FF4400393FAA3F3B3FA83F3D8400130D1
:100F0C00094B9B6813F4803F05D00A4B03FB02F39B
:100F1C00B3FBF0F07047054B03FB02F3B3FBF0F0AF
:100F2C0070470448704700BF003802400024F400AA
:100F3C00B833000800127A008D4B1B6803F00103D4
:100F4C008B4214D201290CD0894A136823F0010377
:100F5C000B431360136803F001038B4207D001208D
:100F6C007047834A136843F004031360ECE770B5D1
:100F7C00036813F0020F06D07E4A936823F0F00347
:100F8C008468234393600C460546036813F0010FF5
:100F9C0000F0A3804368022B18D0032B48D0012B00
:100FAC005BD04FF4007292FAA2F2724A10684FF4BE
:100FBC00007292FAA2F2B2FA82F202F01F0201213E
:100FCC0001FA02F2024215D10120CDE04FF40032B9
:100FDC0092FAA2F2674A10684FF4003292FAA2F227
:100FEC00B2FA82F202F01F02012101FA02F202426D
:100FFC0000F0BB805F498A6822F0030213438B60C8
:10100C00FFF7E8F806466B68022B39D0032B46D065
:10101C00012B53D0574B9B6813F00C0F5DD0FFF78F
:10102C00D9F8801B41F288339842F3D903209BE016
:10103C004FF0007292FAA2F24E4A10684FF0007212
:10104C0092FAA2F2B2FA82F202F01F02012101FA24
:10105C0002F20242CED1012086E0022292FAA2F2E2
:10106C00444A1068022292FAA2F2B2FA82F202F018
:10107C001F02012101FA02F20242BBD1012073E0EE
:10108C003C4B9B6803F00C03082B26D0FFF7A2F80F
:10109C00801B41F288339842F2D9032064E0354B2F
:1010AC009B6803F00C030C2B17D0FFF793F8801BF5
:1010BC0041F288339842F2D9032055E02D4B9B68BE
:1010CC0003F00C03042B08D0FFF784F8801B41F2CB
:1010DC0088339842F2D9032046E0254B1B6803F075
:1010EC000103A34214D9012C0CD0214A136823F01C
:1010FC00010323431360136803F00103A34207D0D9
:10110C00012031E01A4A136843F004031360ECE742
:10111C002B6813F0040F06D0164A936823F4E0638F
:10112C00E9680B4393602B6813F0080F07D0114A42
:10113C00936823F46053296943EAC1039360FFF772
:10114C00ADFE0C4B9B6803F0F003F02292FAA2F276
:10115C00B2FA82F2D340084AD35CD840074B1860ED
:10116C000020FFF70DF8002070BD0120FCE700BF48
:10117C00003C024000380240C4330008000000204C
:10118C00014B1868704700BF0000002008B5FFF73E
:10119C00F7FF074B9B6803F4E0634FF4E06292FAAD
:1011AC00A2F2B2FA82F2D340024AD35CD84008BD14
:1011BC0000380240D433000808B5FFF7E1FF074BB5
:1011CC009B6803F460534FF4605292FAA2F2B2FAA5
:1011DC0082F2D340024AD35CD84008BD00380240AA
:1011EC00D43300082DE9F04105460E4690461C46C6
:1011FC00FEF7F0FF0746B8F1000F2ED02B689B6866
:10120C0036EA03035BD1B4F1FF3FF7D024B1FEF70C
:10121C00E1FFC01BA042F1D92A68536823F0E00318
:10122C0053602A68136823F040031360AB6AB3F56C
:10123C00005F39D0012385F85130002385F85030F8
:10124C0003202FE02A68136823F4005313602A68E4
:10125C00136843F4005313601BE02B689B6836EA59
:10126C0003031ED0B4F1FF3FF7D024B1FEF7B2FF59
:10127C00C01BA042F1D92A68536823F0E0035360E5
:10128C002A68136823F040031360AB6AB3F5005F60
:10129C00D8D0012385F85130002385F85030032035
:1012AC0000E00020BDE8F0812A68136823F40053A5
:1012BC0013602A68136843F400531360BAE70020E4
:1012CC00F0E710B582B00024ADF8064090F851401C
:1012DC00E4B2012C05D090F85140E4B2222C40F03D
:1012EC009981002900F09A81002A00F09981002B45
:1012FC0000F0988190F85040012C00F09581012469
:10130C0080F8504090F85140E4B2012C64D0002495
:10131C00446582638387C38701638386C386846441
:10132C00C464836AB3F5005F5AD003681A6812F07C
:10133C00400F03D11A6842F040021A600446C36899
:10134C00B3F5006F57D0436833B1B3F5827F0DD13D
:10135C00C38E9BB2012B09D1236B5A1C22632268CA
:10136C001B78D360E38E013B9BB2E386E38E9BB28A
:10137C00002B40F0E280A36AB3F5005F00F0C4805C
:10138C00049B002201212046FFF72CFF002840F08F
:10139C0055812368DA68A36B1A70E38F013B9BB20B
:1013AC00E387A36AB3F5005F00F00181049B01227F
:1013BC0080212046FFF716FF0346002840F00C81E1
:1013CC00012284F85120A26AB2F5005F00F00A8174
:1013DC00002284F850201EE1322480F8514096E718
:1013EC000268136823F4005313600268136843F413
:1013FC000053136099E7436833B1B3F5827F0ED184
:10140C00C38E9BB2012B0AD1226B23681288DA603F
:10141C00236B02332363E38E013B9BB2E386E38EA3
:10142C009BB2002B32D1A36AB3F5005F14D0049B9E
:10143C00002201212046FFF7D5FE002840F0F6805F
:10144C002368DA68A36B1A80A36B0233A363E38F60
:10145C00013B9BB2E387A4E72268136843F48053F3
:10146C001360E4E7049B002201212046FFF7BAFE3B
:10147C00002840F0DF802368DA68A36B1A80A36B26
:10148C000233A363E38F013B9BB2E387E38E9BB2F2
:10149C000BB3049B002202212046FFF7A3FE002879
:1014AC0040F0C680226B23681288DA60236B02330B
:1014BC002363E38E013B9BB2E386E38E9BB2002B4E
:1014CC00D0D1A36AB3F5005FCCD12268136843F482
:1014DC0080531360C6E76368002B7FF462AF049BF4
:1014EC00002201212046FFF77DFE002840F0A48059
:1014FC002368DA68A36B1A80A36B0233A363E38FB0
:10150C00013B9BB2E3874CE72268136843F480539A
:10151C00136035E7049B002201212046FFF762FE91
:10152C00002840F08F802368DA68A36B591CA163F4
:10153C001A70E38F013B9BB2E387E38E9BB2FBB146
:10154C00049B002202212046FFF74CFE002877D195
:10155C00236B5A1C226322681B78D360E38E013BF9
:10156C009BB2E386E38E9BB2002BD3D1A36AB3F577
:10157C00005FCFD12268136843F480531360C9E72E
:10158C006368002B7FF40DAF049B002201212046E1
:10159C00FFF728FE002857D12368DA68A36B591C83
:1015AC00A1631A70E38F013B9BB2E387F9E6049BBE
:1015BC00002201212046FFF715FE38B92368DB68AD
:1015CC009BB2ADF80630BDF80630EFE6636D43F024
:1015DC000203636503231EE0636D43F02003636520
:1015EC00032318E02268916811F0100F3FF4F0AE5D
:1015FC00636D43F002036365136823F400531360B7
:10160C002268136843F400531360002384F85030AD
:10161C00012300E00223184602B010BD0123FAE7B3
:10162C000123F8E70123F6E70223F4E70323F2E7AB
:10163C000323F0E70323EEE70323ECE70323EAE7B6
:10164C000323E8E70323E6E70323E4E700283CD081
:10165C0010B5044690F85130002B31D0022384F899
:10166C0051302268136823F0400313606368A2684A
:10167C001343E26813432269134362691343A2695B
:10168C0002F400721343E2691343226A1343A16A02
:10169C0022680B431360638B03F00403616A2268B6
:1016AC000B4353602368E26A1A612268D36923F4FE
:1016BC000063D36100206065012384F8513010BDB4
:1016CC0080F8503001F0EAF8C8E7012070470000BC
:1016DC000368B0F1804F0AD0184A904207D002F547
:1016EC008062904203D002F58032904203D123F005
:1016FC0070034A681343B0F1804F12D00F4A9042E6
:10170C000FD002F5806290420BD002F580329042ED
:10171C0007D002F58062904203D002F580629042BD
:10172C0003D123F44073CA68134303608B68C3620C
:10173C000B68836201234361704700BF00040040C3
:10174C0010B4036A046A24F001040462846924F06E
:10175C00F00444EA021223F00A030B438261036291
:10176C0010BC704710B4036A23F010030362846941
:10177C00036A24F4704444EA023223F0A00343EADF
:10178C0001138261036210BC7047836823F07003FD
:10179C0041F0070119438160704710B4846824F448
:1017AC007F4442EA03230B432343836010BC7047FE
:1017BC00A8B110B5044690F835305BB1022384F81B
:1017CC003530211D2068FFF783FF012384F8353065
:1017DC00002010BD80F8343001F096F8EEE70120BF
:1017EC0070470268D36843F00103D3600268136842
:1017FC0043F0010313600020704790F83430012B44
:10180C007DD010B50446012380F83430022380F8D3
:10181C0035300268936823F47F4323F07703936099
:10182C000B68402B57D010D9702B3ED01FD8502BA3
:10183C0047D0602B32D1CA6849680068FFF792FF25
:10184C0060212068FFF7A1FF28E0102B4DD008D9AC
:10185C00202B4FD0302B21D130210068FFF795FF82
:10186C001CE0DBB900210068FFF78FFF16E0B3F531
:10187C00805F0ED0B3F5005F10D1CB684A688968E1
:10188C000068FFF78AFF2268936843F480439360F3
:10189C0004E00268936823F007039360012384F843
:1018AC003530002084F8340010BDCB684A68896854
:1018BC000068FFF772FF2268936843F07703936028
:1018CC00ECE7CA6849680068FFF73AFF50212068C6
:1018DC00FFF75BFFE2E7CA6849680068FFF730FF73
:1018EC0040212068FFF751FFD8E710210068FFF76F
:1018FC004CFFD3E720210068FFF747FFCEE702201B
:10190C007047704770477047704710B504460368BE
:10191C001A6912F0020F11D0DA6812F0020F0DD012
:10192C006FF002021A610123037503689B6913F0BF
:10193C00030F5ED0FFF7E6FF0023237523681A69B7
:10194C0012F0040F12D0DA6812F0040F0ED06FF000
:10195C0004021A610223237523689B6913F4407FE8
:10196C004DD02046FFF7CEFF0023237523681A695C
:10197C0012F0080F12D0DA6812F0080F0ED06FF0C8
:10198C0008021A61042323752368DB6913F0030F23
:10199C003CD02046FFF7B6FF0023237523681A6955
:1019AC0012F0100F12D0DA6812F0100F0ED06FF088
:1019BC0010021A61082323752368DB6913F4407F36
:1019CC002BD02046FFF79EFF0023237523681A694E
:1019DC0012F0010F03D0DA6812F0010F24D1236842
:1019EC001A6912F0400F03D0DA6812F0400F22D1BE
:1019FC0010BDFFF786FF2046FFF785FF9CE72046CA
:101A0C00FFF77FFF2046FFF77EFFADE72046FFF78D
:101A1C0078FF2046FFF777FFBEE72046FFF771FF00
:101A2C002046FFF770FFCFE76FF001021A612046E6
:101A3C0000F052FDD3E76FF040021A612046FFF729
:101A4C0063FFD5E790F83430012B22D030B401225B
:101A5C0080F83420022380F835300468636823F062
:101A6C0070036360046863680D682B4363600468EB
:101A7C00A36823F08003A3600468A36849680B4340
:101A8C00A36080F83520002380F83430184630BC31
:101A9C0070470220704790F83930DBB2122B01D01E
:101AAC00322B2AD18368B3F5805F16D0036A5A1C97
:101ABC0002621A7803685A60C38C013B9BB2C384E0
:101ACC00EBB90268D36823F08003D3600268D36853
:101ADC0043F04003D36000207047036A1B88026800
:101AEC00C3F30803536003691BB9036A023303622F
:101AFC00E2E7036A01330362DEE70220704700204D
:101B0C00704700002DE9F84304460268136923F47A
:101B1C004053C1680B4313618368026913434269E4
:101B2C001343C2691A430168CB6823F4164323F0AC
:101B3C000C031343CB600268536923F4407381692F
:101B4C000B435361C369B3F5004F5CD00268B34BD0
:101B5C009A4200F00C81FFF719FB00EB800000EBC0
:101B6C0080006568AD00B0FBF5F5AD4FA7FB053502
:101B7C006D092E01FFF70AFB00EB800000EB8000E3
:101B8C006568AD00B0FBF5F9FFF700FB00EB8000DA
:101B9C0000EB80006568AD00B0FBF5F5A7FB0535E3
:101BAC006D094FF0640808FB15952D013235A7FB24
:101BBC0005356D0905F0F0053544FFF7E7FA00EB44
:101BCC00800000EB80006668B600B0FBF6F6FFF70D
:101BDC00DDFA00EB800000EB800063689B00B0FB3B
:101BEC00F3F0A7FB0030400908FB10684FEA081817
:101BFC0008F13208A7FB0837C7F3431723682F44B3
:101C0C009F60BDE8F8830268844B9A4257D0FFF777
:101C1C00BDFA00EB800000EB800065686D00B0FB46
:101C2C00F5F57F4FA7FB05356D092E01FFF7AEFAD1
:101C3C0000EB800000EB800065686D00B0FBF5F9EF
:101C4C00FFF7A4FA00EB800000EB800065686D00E4
:101C5C00B0FBF5F5A7FB05356D094FF0640808FBE3
:101C6C001595ED003235A7FB05356D096D0005F4B2
:101C7C00F8753544FFF78AFA00EB800000EB800022
:101C8C0066687600B0FBF6F6FFF780FA00EB800092
:101C9C0000EB800063685B00B0FBF3F3A7FB03234E
:101CAC005B0908FB13684FEAC80808F13208A7FB68
:101CBC000837C7F3421723682F449F60A1E7FFF74B
:101CCC007BFA00EB800000EB800065686D00B0FBD8
:101CDC00F5F5534FA7FB05356D092E01FFF76CFA8F
:101CEC0000EB800000EB800065686D00B0FBF5F93F
:101CFC00FFF762FA00EB800000EB800065686D0076
:101D0C00B0FBF5F5A7FB05356D094FF0640808FB32
:101D1C001595ED003235A7FB05356D096D0005F401
:101D2C00F8753544FFF748FA00EB800000EB8000B3
:101D3C0066687600B0FBF6F6FFF73EFA00EB800023
:101D4C0000EB800063685B00B0FBF3F3A7FB03239D
:101D5C005B0908FB13684FEAC80808F13208A7FBB7
:101D6C000837C7F3421723682F449F6049E7FFF7F2
:101D7C0023FA00EB800000EB80006568AD00B0FB3F
:101D8C00F5F5274FA7FB05356D092E01FFF714FA62
:101D9C0000EB800000EB80006568AD00B0FBF5F94E
:101DAC00FFF70AFA00EB800000EB80006568AD00DD
:101DBC00B0FBF5F5A7FB05356D094FF0640808FB82
:101DCC0015952D013235A7FB05356D0905F0F0058C
:101DDC003544FFF7F1F900EB800000EB80006668FA
:101DEC00B600B0FBF6F6FFF7E7F900EB800000EB6E
:101DFC00800063689B00B0FBF3F3A7FB03235B0934
:101E0C0008FB13684FEA081808F13208A7FB0837DB
:101E1C00C7F3431723682F449F60F2E60038014054
:101E2C001F85EB512DE9F04105460E4690461C46A8
:101E3C00FEF7D0F90746B8F1000F29D02B681B68C4
:101E4C0036EA030351D1B4F1FF3FF7D024B1FEF7CA
:101E5C00C1F9C01BA042F1D92A68D36823F08003D2
:101E6C00D3602A68D36823F02003D3602A68D36830
:101E7C0023F48073D3602A68536923F00103536100
:101E8C00012385F83930002385F8383003202AE007
:101E9C002B681B6836EA030324D0B4F1FF3FF7D05C
:101EAC0024B1FEF797F9C01BA042F1D92A68D36878
:101EBC0023F08003D3602A68D36823F02003D36017
:101ECC002A68D36823F48073D3602A68536923F09B
:101EDC0001035361012385F83930002385F838302C
:101EEC00032000E00020BDE8F0810020FBE748B3B0
:101EFC0010B5044690F83930FBB1022384F8393020
:101F0C002268D36823F40053D3602046FFF7FAFD10
:101F1C002268136923F4904313612268536923F0F8
:101F2C002A0353612268D36843F40053D360002022
:101F3C00E063012384F8393010BD80F8383000F0AC
:101F4C0001FDDAE70120704770B504460D461E46C8
:101F5C0090F83930DBB2012B01D0222B59D1002D56
:101F6C005AD0002A5AD094F83830012B58D001237B
:101F7C0084F838300023E36394F83930DBB2222B39
:101F8C0005D0122384F83930A284E28413E0322382
:101F9C0084F83930F8E73346002280212046FFF7D9
:101FAC0041FF00283ED12B882268C3F308035360FD
:101FBC002369A3B90235E38C9BB1013BE384A3688D
:101FCC00B3F5805FE7D03346002280212046FFF72F
:101FDC0029FF48BB2A7823685A600135EBE70135A5
:101FEC00E9E73346002240212046FFF71BFF03465A
:101FFC00E0B994F83920D2B2322A06D0012284F802
:10200C003920002284F8382004E0222284F8392078
:10201C00F7E70223184670BD0123FBE70123F9E71C
:10202C000223F7E70323F5E70323F3E70323F1E7A1
:10203C00704708B50268D36823F04003D36090F86A
:10204C003930DBB2322B06D0012380F83930FFF760
:10205C00EFFF002008BD222380F83930F7E77047E6
:10206C0008B590F83930DBB2222B01D0322B4ED18F
:10207C008368B3F5805F29D00369002B3AD10368DC
:10208C005A68836A591C81621A70C38D013B9BB2DA
:10209C00C385002B3DD10268D36823F02003D360A5
:1020AC0090F83930DBB2322B2DD00268D36823F490
:1020BC008073D3600268536923F0010353610123D9
:1020CC0080F83930FFF7CBFF002008BD826A036926
:1020DC0043B903685B68C3F308031380836A023354
:1020EC008362D2E703685B68DBB21380836A0133D7
:1020FC008362CAE703685B68826A511C816203F0E1
:10210C007F031370C1E7122380F83930DAE702201D
:10211C00DBE70020D9E7704710B582B004460368AE
:10212C001968DA6811F0010F06D002F480721AB146
:10213C00C26B42F00102C26319685A6902F00102D3
:10214C0011F0020F04D01AB1E16B41F00401E1630C
:10215C00196811F0040F04D01AB1E16B41F00201BF
:10216C00E163196811F0080F04D01AB1E26B42F068
:10217C000802E2631A68DB6803F0200312F0200FF8
:10218C0000D0ABB923681A68DB6803F0800312F047
:10219C00800F00D083B923681A68DB6803F0400312
:1021AC0012F0400F00D05BB9E36B6BB902B010BDFD
:1021BC002046FFF755FFE5E72046FFF76CFCEAE702
:1021CC002046FFF736FFEFE723681A6801925B6839
:1021DC000193019B012384F839302046FFF79BFFC4
:1021EC00E4E70000114B5B7ADBB2012B01D9012033
:1021FC00704730B40D4C657AEDB200236355657AA7
:10220C0004EB85056860607A20440272627AD2B26F
:10221C00501CC0B2607230320A703A224A702F22BF
:10222C008A70CB70184630BC704700BF9C000020F1
:10223C0008B50022FFF7D6FF08BD000008B503491A
:10224C000348FFF7F5FF034B187008BDF80000209A
:10225C0008000020FC000020F0B58BB00024059491
:10226C000694079408940994294BDA6942F0040205
:10227C00DA61DA6902F004020192019ADA6942F039
:10228C002002DA61DA6902F020020292029ADA691B
:10229C0042F00102DA61DA6902F001020392039A58
:1022AC00DA6942F00202DA61DB6903F0020304939B
:1022BC00049B184F22464FF440713846FEF774F9D0
:1022CC00154D22464FF480712846FEF76DF9012614
:1022DC000596124B0693079405A92846FEF7A0F81D
:1022EC004FF44073059306960794089405A9384655
:1022FC00FEF796F84FF48073059306960794022325
:10230C00089305A92846FEF78BF80BB0F0BD00BF6B
:10231C000038024000080240000002400000121089
:10232C0000B583B00A4BDA6942F08072DA61DB697E
:10233C0003F080730193019B002211460E20FDF7E0
:10234C006FFF0E20FDF7A0FF03B05DF804FB00BF8C
:10235C000038024008B50B480B4B03604FF48273F6
:10236C00436000238360C360036143614FF40072D8
:10237C008261C3610362436283620A23C362FFF713
:10238C0065F908BD5C2100200038004008B50848FC
:10239C00084B03604FF4E133436000238360C36058
:1023AC0003610C2242618361C361FFF7A0FD08BD8C
:1023BC00F82100200038014030B587B00024029489
:1023CC00039404940594009401940E4D4FF08043B3
:1023DC002B6049F63F436B60AC600A23EB602C61C9
:1023EC002846FFF7E5F94FF48053029302A92846DB
:1023FC00FFF703FA0094019469462846FFF722FB85
:10240C0007B030BD3822002008B50848084B0360DF
:10241C004FF40073436000238360C36003614AF68A
:10242C00444242618361FEF7C5F808BD702200206A
:10243C00003C004030B593B03422002105A800F0D8
:10244C0083FB002400940194029403940494134A93
:10245C00136823F4C05343F40063136001250595FE
:10246C000523069302230E934FF480330F934FF4FE
:10247C00402310934FF40003119305A8FEF748F97D
:10248C000F2300930323019302940394049429468D
:10249C006846FEF751FD13B030BD00BF0070004020
:1024AC0008B5FDF783FEFFF7C5FFFFF7D5FEFFF775
:1024BC0037FFFFF74FFFFFF7C1FEFFF767FFFFF78F
:1024CC007BFFFFF7A1FF0348FFF78BF900F094F8AF
:1024DC00FEE700BF38220020044B834200D0704737
:1024EC00034A138801339BB21380F8E7382200208B
:1024FC00A80000207047000008B500224FF480713E
:10250C000148FEF751F808BD0008024000B587B03D
:10251C008DF80F0006AA002302F8013D4FF48053FA
:10252C00009301230DF10F010548FEF7CAFE20B9F7
:10253C009DF8170007B05DF804FBFFF7DDFFF7E728
:10254C005C21002008B5FFF7E1FF08BD08B5FF20AE
:10255C00FFF7DCFF08BD000070B504460D4610F017
:10256C00800F33D1204E01224FF480713046FEF79C
:10257C001BF8FFF7EBFF00224FF480713046FEF79B
:10258C0013F8FFF7E3FF2046FFF7DCFF280EFFF7F9
:10259C00D9FFC5F30740FFF7D5FFC5F30720FFF7B9
:1025AC00D1FFE8B2FFF7CEFF402C18D00120482C09
:1025BC0017D0FFF7C7FF0A24FFF7C8FF10F0800FF2
:1025CC0003D0631E13F0FF04F6D170BD00F07F043E
:1025DC0000217720FFF7C0FF0128F6D8C2E795202D
:1025EC00E5E78720E5E700BF0000024008B5FF20C3
:1025FC00FFF78CFF08BD000070B584B06420FDF7B8
:10260C00EFFD01224FF480716648FDF7CDFF0024E9
:10261C00654B1C7001224FF480716448FDF7C4FFB8
:10262C0002E0FFF7E3FF0134092CFADD00224FF43E
:10263C0080715E48FDF7B8FF00214020FFF78CFF4A
:10264C0001280DD00021E920FFF786FF012840F278
:10265C008E80554B01221A70412546F2A8148DE04C
:10266C00FFF7C4FF4FF4D5714820FFF775FF012821
:10267C003BD04D4B1A784E4C4E49204600F06CFA2C
:10268C002046FDF775FD4FF4805382B221464A482F
:10269C00FFF75AFC00207DE0FFF758FF04AB234402
:1026AC0003F8040C0134032CF6DD9DF80C209DF886
:1026BC000D309DF80E509DF80F603D4C0196009525
:1026CC003E49204600F048FA2046FDF751FD4FF4F4
:1026DC00805382B221463848FFF736FC012DC8D111
:1026EC00AA2EC6D142F6E06403E00024DBE7013CED
:1026FC00A4B234B14FF08041E920FFF72DFF002840
:10270C00F5D1002CB5D000217A20FFF725FF002849
:10271C00AFD1002406E0FFF719FF04AB234403F804
:10272C00040C0134032CF6DD9DF80C509DF80D3093
:10273C009DF80E209DF80F101D4C019100922A4619
:10274C001E49204600F008FA2046FDF711FD4FF413
:10275C00805382B221461848FFF7F6FB15F0400F64
:10276C0003D00C23104A137083E70423FAE70E4BB3
:10277C0002221A70E92570E7013CA4B22CB10021A9
:10278C002846FFF7E9FE0028F6D12CB9064B0022AB
:10279C001A70012004B070BD4FF400715020FFF787
:1027AC00DBFEF3E700080240AC22002000000240F0
:1027BC00AC00002000340008F8210020DC330008B5
:1027CC0000B585B0104B5A6A42F000425A625A6A00
:1027DC0002F000420192019A1A6A42F001021A6256
:1027EC001A6A02F001020292029A5A6A42F080526C
:1027FC005A625B6A03F080530393039B0720FDF737
:10280C00FDFC05B05DF804FB0038024030B589B022
:10281C0000230393049305930693079302681C4BC0
:10282C009A4201D009B030BD03F5FE335A6A42F426
:10283C0080425A625A6A02F480420092009ADA6923
:10284C0042F00102DA61DA6902F001020192019AA6
:10285C00DA6942F00402DA61DB6903F004030293E3
:10286C00029B10230393022504950624079403A9C5
:10287C000848FDF7D5FD4FF4A053039304950023AE
:10288C0005930693079403A90348FDF7C9FDC9E70F
:10289C00003C0040000002400008024000B589B036
:1028AC000023039304930593069307930268144B38
:1028BC009A4202D009B05DF804FB03F500335A6A62
:1028CC0042F480425A625A6A02F480420192019A9E
:1028DC00DA6942F00202DA61DB6903F00203029367
:1028EC00029B4FF460430393022304930323069348
:1028FC000523079303A90348FDF792FDDAE700BF10
:10290C0000380040000402400368B3F1804F00D04F
:10291C00704700B583B003F50E335A6A42F00102DA
:10292C005A625B6A03F001030193019B002211467A
:10293C001C20FDF775FC1C20FDF7A6FC03B05DF810
:10294C0004FB000010B588B0002303930493059397
:10295C00069307930268244B9A4201D008B010BD2D
:10296C00044603F580331A6A42F480421A621A6AEA
:10297C0002F480420192019ADA6942F00102DA61B2
:10298C00DB6903F001030293029B4FF4C0630393D2
:10299C000223049301230593032306930723079330
:1029AC0003A91248FDF73CFD1148124B036010239C
:1029BC004360002383608022C260036143618361B2
:1029CC00C361FDF783FC58B9094B23635C62002299
:1029DC0011462520FDF724FC2520FDF755FCBDE70D
:1029EC00FFF788FDF0E700BF00380140000002400F
:1029FC00B4210020446002407047FEE7FEE7FEE78A
:102A0C00FEE770477047704708B5FDF7DBFB08BD64
:102A1C0008B50248FDF7AAFC08BD00BFB421002090
:102A2C0008B50248FEF771FF08BD00BF3822002030
:102A3C0008B50248FFF770FB08BD00BFF821002065
:102A4C000E4B1A6842F480721A6099680C4A0A405C
:102A5C009A601A6822F0885222F001121A601A68E1
:102A6C0022F480221A609A6822F47D029A60002275
:102A7C00DA60044B4FF000629A60704700380240F5
:102A8C000CC0FF8800ED00E0024B01221A70187890
:102A9C00704700BF04000020024B01221A70187806
:102AAC00704700BF040000200020704700207047D2
:102ABC0001207047002103E00B4B5B58435004315D
:102ACC000A480B4B42189A42F6D30A4A02E00023FA
:102ADC0042F8043B084B9A42F9D3FFF7B1FF00F0E0
:102AEC000FF8FFF7DDFC70475034000800000020A1
:102AFC008000002080000020B4220020FEE70000AF
:102B0C0070B500250C4E0D4CA41BA410A54209D188
:102B1C0000F040FC00250A4E0A4CA41BA410A54250
:102B2C0005D170BD56F8253098470135EEE756F8BB
:102B3C00253098470135F2E748340008483400083E
:102B4C00483400084C34000803460244934200D138
:102B5C00704703F8011BF9E70EB46FF0004100B5A4
:102B6C009CB01DAB0290069007910491084809494E
:102B7C0053F8042B0591006802A9019300F066F844
:102B8C000022029B1A701CB05DF804EB03B0704776
:102B9C001C0000200802FFFF2DE9F0478E688246DA
:102BAC009E420C469046994637D88A8912F4906F0B
:102BBC0031D00223256809696F1A656905EB450553
:102BCC0095FBF3F509F101033B449D4238BF1D46CB
:102BDC00530530D5294600F035FB064650B90C2379
:102BEC004FF0FF30CAF80030A38943F04003A381B3
:102BFC00BDE8F0873A46216900F0B4FAA38923F4C2
:102C0C00906343F08003A38126613E4426604E46C8
:102C1C006561ED1BA5604E4500D94E4632464146D6
:102C2C00206800F0AAFAA36800209B1BA36023680D
:102C3C001E442660DCE72A4600F05EFB06460028B0
:102C4C00E2D12169504600F0B1FAC8E72DE9F04F06
:102C5C009DB003938B8980461D060C4616460FD5F6
:102C6C000B696BB9402100F0EDFA2060206128B9A6
:102C7C000C23C8F800304FF0FF30C7E040236361ED
:102C8C000023099320238DF8293030234FF0010BBA
:102C9C008DF82A3037463D4615F8013B0BB1252BF4
:102CAC003ED1B7EB060A0BD053463246214640467E
:102CBC00FFF772FF013000F0A480099B5344099385
:102CCC003B78002B00F09D8000234FF0FF32CDE9C4
:102CDC000523049307938DF853301A932F4605223E
:102CEC0017F8011B4F4800F02FFA049BD0B9D906F6
:102CFC0044BF20228DF853201A0744BF2B228DF895
:102D0C0053202A782A2A15D02F4600200A25079A04
:102D1C00394611F8013B303B092B4DD9B8B10FE0C6
:102D2C002F46B8E73F4A3D46801A0BFA00F018438D
:102D3C000490D3E7039A111D12680391002A01DB5A
:102D4C00079204E0524243F00203079204933B784B
:102D5C002E2B0CD17B782A2B33D1039B02371A1DD7
:102D6C001B680392002BB8BF4FF0FF3305932E4D19
:102D7C0003223978284600F0E7F938B14023401B8C
:102D8C0003FA00F0049B01370343049339780622BD
:102D9C0026487E1C8DF8281000F0D6F9002838D073
:102DAC00234B13BB039B073323F007030833039315
:102DBC00099B4B4409936DE705FB023201200F463A
:102DCC00A6E700230A25194601370593384610F863
:102DDC00012B303A092A03D9002BC8D00591C6E73C
:102DEC0005FB012101230746F0E703AB00932246C4
:102DFC00104B04A94046AFF30080B0F1FF3F814671
:102E0C00D6D1A3895B063FF536AF09981DB0BDE856
:102E1C00F08F03AB00932246064B04A9404600F00A
:102E2C0081F8EAE7143400081A3400081E3400084C
:102E3C0000000000A52B00082DE9F04791461F4625
:102E4C008A680B6906469342B8BF1346C9F800302E
:102E5C0091F843200C46DDF8208012B10133C9F8FB
:102E6C0000302368990642BFD9F800300233C9F804
:102E7C000030256815F0060507D104F1190AE3683E
:102E8C00D9F800209B1AAB4229DC94F84330226815
:102E9C00003318BF012392062ED404F143023946A5
:102EAC003046C047013021D02368E56803F00603A3
:102EBC00042B18BF0025D9F800204FF0000908BFDB
:102ECC00AD1AA368226908BF25EAE5759342C4BF11
:102EDC009B1AED181A344D451AD1002008E0012335
:102EEC00524639463046C047013003D14FF0FF30CF
:102EFC00BDE8F0870135C2E73020E11881F84300C6
:102F0C005A1C94F845102244023382F84310C4E74B
:102F1C000123224639463046C0470130E6D009F13C
:102F2C000109D8E72DE9F04301F1430C0C46097E69
:102F3C0085B06E291746064698460C9A00F0B38069
:102F4C0022D8632936D00AD8002900F0B980582934
:102F5C0000F0838004F1420584F8421032E06429C9
:102F6C0001D06929F6D120681368050603F1040124
:102F7C002AD51B681160002B03DA2D225B4284F8E2
:102F8C0043206F480A2239E0732900F09D8008D84D
:102F9C006F2920D07029DDD1236843F020032360F2
:102FAC0003E0752917D07829D4D17823654884F8A3
:102FBC00453055E0136804F14205191D1B6811607A
:102FCC0084F8423001238CE01B6810F0400F116034
:102FDC0018BF1BB2CFE713682568181D10602806B0
:102FEC0001D51B6802E06806FBD51B886F2914BF4E
:102FFC000A2208225248002184F843106568002DEB
:10300C00A560C0F29580216821F004012160002B9D
:10301C003DD1002D40F08E806546082A0BD12368E7
:10302C00DB0708D5236962689A42DEBF302305F8B6
:10303C00013C05F1FF35ACEB05032361CDF80080B5
:10304C003B4603AA21463046FFF7F6FE01304DD130
:10305C004FF0FF3005B0BDE8F083394884F84510D7
:10306C00136821681D1D1B6815600A060BD5CA075D
:10307C0044BF41F0200121601BB9226822F02002DC
:10308C0022601022B7E74D0648BF9BB2EFE76546BA
:10309C00B3FBF2F102FB1133C35C05F8013D0B46A7
:1030AC000029F5D1B9E713682568181D616910600E
:1030BC0028061B6801D5196002E06A06FBD5198049
:1030CC00002365462361B9E71368191D11601D685B
:1030DC0062680021284600F037F808B1401B606098
:1030EC0063682361002384F84330A7E723692A46E9
:1030FC0039463046C0470130AAD023689B0713D409
:10310C00E068039B9842B8BF1846A3E701234A46E0
:10311C0039463046C04701309AD00135E368039AEE
:10312C009B1AAB42F2DCEBE7002504F11909F5E739
:10313C00002BACD1037804F1420584F842306CE7E3
:10314C00253400083634000810B5C9B20244904248
:10315C00034601D1002303E01C7801308C42F6D1E8
:10316C00184610BD10B5431E0A44914200D110BD43
:10317C0011F8014B03F8014FF7E7884210B501EB4A
:10318C00020307D8421E99420AD011F8014B02F8EB
:10319C00014FF8E78342F5D98118D21AD34200D1F6
:1031AC0010BD13F8014D01F8014DF7E738B5054690
:1031BC00002943D051F8043C0C1F002BB8BFE41875
:1031CC0000F0D0F81E4A1368104633B963601460DF
:1031DC002846BDE8384000F0C6B8A3420BD9216898
:1031EC006218934201BF1A685B68521822606360D0
:1031FC000460EDE713465A680AB1A242FAD919687D
:10320C005818A0420BD1206801445818824219600A
:10321C00DED110685268014419605A60D8E702D9AF
:10322C000C232B60D4E7206821188A4201BF116857
:10323C0052680918216062605C60C9E738BD00BF44
:10324C00E800002070B5CD1C25F0030508350C2DC9
:10325C0038BF0C25002D064601DBA94203D90C23EF
:10326C003360002070BD00F07DF8214A14682146BF
:10327C0091B9204C23681BB9304600F063F82060EC
:10328C002946304600F05EF8431C24D10C2330460E
:10329C00336000F068F8E4E70B685B1B18D40B2B69
:1032AC000FD90B60CC18CD50304600F05CF804F10F
:1032BC000B00231D20F00700C31AD3D05A42E25052
:1032CC00D0E74B688C4216BF636013600C46EBE78B
:1032DC000C464968CCE7C41C24F00304A04205D07A
:1032EC00211A304600F02EF80130CFD02560DBE7F4
:1032FC00E8000020EC000020F8B5074614460E4606
:10330C0021B9BDE8F8401146FFF79CBF22B9FFF781
:10331C004DFF25462846F8BD00F026F8A0420FD2F6
:10332C0021463846FFF78EFF05460028F2D031467D
:10333C002246FFF717FF31463846FFF737FFE9E71C
:10334C003546E7E738B50023054C054608462360AB
:10335C0000F012F8431C02D1236803B12B6038BD76
:10336C00B02200207047704751F8043C181F002B06
:10337C00BCBF0B58C0187047044A05491368002B92
:10338C0008BF0B461844106018467047F000002028
:10339C00B8220020F8B500BFF8BC08BC9E467047A8
:0C33AC00F8B500BFF8BC08BC9E46704796
:1033B800030406080C10182030000000000000006C
:1033C80000000000010203040607080900000000CD
:1033D800010203044F43523A2030782530325820F6
:1033E80030782530325820307825303258203078DF
:1033F80025303258726E0000547970652053443A73
:1034080020307825303258726E000000232D302B82
:103418002000686C4C0065666745464700303132CD
:103428003334353637383941424344454600303124
:103438003233343536373839616263646566000083
:043448006101000816
:04344C003D01000836
:1034500068FF1F0001000000952A0008A52A000847
:10346000B52A0008B92A0008BD2A0008200000205B
:10347000000000000000000000000000000000004C
:10348000000000000000000000000000000000003C
:10349000000000000000000000000000000000002C
:1034A000000000000000000000000000000000001C
:1034B000000000000000000000000000000000000C
:1034C00000000000000000000000000000000000FC
:0400000508002AC104
:00000001FF
